{
  "contractName": "Certification",
  "abi": [
    {
      "constant": true,
      "inputs": [
        {
          "name": "",
          "type": "bytes32"
        }
      ],
      "name": "certificates",
      "outputs": [
        {
          "name": "candidate_name",
          "type": "string"
        },
        {
          "name": "org_name",
          "type": "string"
        },
        {
          "name": "course_name",
          "type": "string"
        },
        {
          "name": "expiration_date",
          "type": "uint256"
        }
      ],
      "payable": false,
      "stateMutability": "view",
      "type": "function"
    },
    {
      "inputs": [],
      "payable": false,
      "stateMutability": "nonpayable",
      "type": "constructor"
    },
    {
      "anonymous": false,
      "inputs": [
        {
          "indexed": false,
          "name": "_certificateId",
          "type": "bytes32"
        }
      ],
      "name": "certificateGenerated",
      "type": "event"
    },
    {
      "constant": false,
      "inputs": [
        {
          "name": "_id",
          "type": "string"
        },
        {
          "name": "_candidate_name",
          "type": "string"
        },
        {
          "name": "_org_name",
          "type": "string"
        },
        {
          "name": "_course_name",
          "type": "string"
        },
        {
          "name": "_expiration_date",
          "type": "uint256"
        }
      ],
      "name": "generateCertificate",
      "outputs": [],
      "payable": false,
      "stateMutability": "nonpayable",
      "type": "function"
    },
    {
      "constant": true,
      "inputs": [
        {
          "name": "_id",
          "type": "string"
        }
      ],
      "name": "getData",
      "outputs": [
        {
          "name": "",
          "type": "string"
        },
        {
          "name": "",
          "type": "string"
        },
        {
          "name": "",
          "type": "string"
        },
        {
          "name": "",
          "type": "uint256"
        }
      ],
      "payable": false,
      "stateMutability": "view",
      "type": "function"
    }
  ],
  "bytecode": "0x608060405234801561001057600080fd5b50610c95806100206000396000f300608060405260043610610057576000357c0100000000000000000000000000000000000000000000000000000000900463ffffffff168063742f06881461005c578063ae55c888146101e5578063bc12f6eb146103a6575b600080fd5b34801561006857600080fd5b5061008b60048036038101908080356000191690602001909291905050506104eb565b60405180806020018060200180602001858152602001848103845288818151815260200191508051906020019080838360005b838110156100d95780820151818401526020810190506100be565b50505050905090810190601f1680156101065780820380516001836020036101000a031916815260200191505b50848103835287818151815260200191508051906020019080838360005b8381101561013f578082015181840152602081019050610124565b50505050905090810190601f16801561016c5780820380516001836020036101000a031916815260200191505b50848103825286818151815260200191508051906020019080838360005b838110156101a557808201518184015260208101905061018a565b50505050905090810190601f1680156101d25780820380516001836020036101000a031916815260200191505b5097505050505050505060405180910390f35b3480156101f157600080fd5b5061024c600480360381019080803590602001908201803590602001908080601f01602080910402602001604051908101604052809392919081815260200183838082843782019150505050505091929192905050506106e3565b60405180806020018060200180602001858152602001848103845288818151815260200191508051906020019080838360005b8381101561029a57808201518184015260208101905061027f565b50505050905090810190601f1680156102c75780820380516001836020036101000a031916815260200191505b50848103835287818151815260200191508051906020019080838360005b838110156103005780820151818401526020810190506102e5565b50505050905090810190601f16801561032d5780820380516001836020036101000a031916815260200191505b50848103825286818151815260200191508051906020019080838360005b8381101561036657808201518184015260208101905061034b565b50505050905090810190601f1680156103935780820380516001836020036101000a031916815260200191505b5097505050505050505060405180910390f35b3480156103b257600080fd5b506104e9600480360381019080803590602001908201803590602001908080601f0160208091040260200160405190810160405280939291908181526020018383808284378201915050505050509192919290803590602001908201803590602001908080601f0160208091040260200160405190810160405280939291908181526020018383808284378201915050505050509192919290803590602001908201803590602001908080601f0160208091040260200160405190810160405280939291908181526020018383808284378201915050505050509192919290803590602001908201803590602001908080601f0160208091040260200160405190810160405280939291908181526020018383808284378201915050505050509192919290803590602001909291905050506109c1565b005b6000602052806000526040600020600091509050806000018054600181600116156101000203166002900480601f0160208091040260200160405190810160405280929190818152602001828054600181600116156101000203166002900480156105975780601f1061056c57610100808354040283529160200191610597565b820191906000526020600020905b81548152906001019060200180831161057a57829003601f168201915b505050505090806001018054600181600116156101000203166002900480601f0160208091040260200160405190810160405280929190818152602001828054600181600116156101000203166002900480156106355780601f1061060a57610100808354040283529160200191610635565b820191906000526020600020905b81548152906001019060200180831161061857829003601f168201915b505050505090806002018054600181600116156101000203166002900480601f0160208091040260200160405190810160405280929190818152602001828054600181600116156101000203166002900480156106d35780601f106106a8576101008083540402835291602001916106d3565b820191906000526020600020905b8154815290600101906020018083116106b657829003601f168201915b5050505050908060030154905084565b60608060606000806106f3610b9b565b6106fc87610b70565b9150600080836000191660001916815260200190815260200160002060806040519081016040529081600082018054600181600116156101000203166002900480601f0160208091040260200160405190810160405280929190818152602001828054600181600116156101000203166002900480156107bd5780601f10610792576101008083540402835291602001916107bd565b820191906000526020600020905b8154815290600101906020018083116107a057829003601f168201915b50505050508152602001600182018054600181600116156101000203166002900480601f01602080910402602001604051908101604052809291908181526020018280546001816001161561010002031660029004801561085f5780601f106108345761010080835404028352916020019161085f565b820191906000526020600020905b81548152906001019060200180831161084257829003601f168201915b50505050508152602001600282018054600181600116156101000203166002900480601f0160208091040260200160405190810160405280929190818152602001828054600181600116156101000203166002900480156109015780601f106108d657610100808354040283529160200191610901565b820191906000526020600020905b8154815290600101906020018083116108e457829003601f168201915b5050505050815260200160038201548152505090506000816060015114151515610993576040517f08c379a000000000000000000000000000000000000000000000000000000000815260040180806020018281038252600e8152602001807f4e6f20646174612065786973747300000000000000000000000000000000000081525060200191505060405180910390fd5b8060000151816020015182604001518360600151839350829250819150955095509550955050509193509193565b60006109cc86610b70565b90506000806000836000191660001916815260200190815260200160002060030154141515610a89576040517f08c379a00000000000000000000000000000000000000000000000000000000081526004018080602001828103825260288152602001807f4365727469666963617465207769746820676976656e20696420616c7265616481526020017f792065786973747300000000000000000000000000000000000000000000000081525060400191505060405180910390fd5b6080604051908101604052808681526020018581526020018481526020018381525060008083600019166000191681526020019081526020016000206000820151816000019080519060200190610ae1929190610bc4565b506020820151816001019080519060200190610afe929190610bc4565b506040820151816002019080519060200190610b1b929190610bc4565b50606082015181600301559050507ff54e0f0055ffae318a21890316ed523f8a60aa59aaa279dfdcae7176155ec0db8160405180826000191660001916815260200191505060405180910390a1505050505050565b60006060829050600081511415610b8d5760006001029150610b95565b602083015191505b50919050565b608060405190810160405280606081526020016060815260200160608152602001600081525090565b828054600181600116156101000203166002900490600052602060002090601f016020900481019282601f10610c0557805160ff1916838001178555610c33565b82800160010185558215610c33579182015b82811115610c32578251825591602001919060010190610c17565b5b509050610c409190610c44565b5090565b610c6691905b80821115610c62576000816000905550600101610c4a565b5090565b905600a165627a7a72305820e2102a3d7ee6d29091a9bf741b4de6ab8bc23a22651ceb6aff4b727b18614e710029",
  "source": "pragma solidity ^0.4.24;\n\ncontract Certification {\n    constructor() public {}\n\n    struct Certificate {\n        string candidate_name;\n        string org_name;\n        string course_name;\n        uint256 expiration_date;\n    }\n\n    mapping(bytes32 => Certificate) public certificates;\n\n    event certificateGenerated(bytes32 _certificateId);\n\n    function stringToBytes32(string memory source) private pure returns (bytes32 result) {\n        bytes memory tempEmptyStringTest = bytes(source);\n        if (tempEmptyStringTest.length == 0) {\n            return 0x0;\n        }\n        assembly {\n                result := mload(add(source, 32))\n        }\n    }\n\n    function generateCertificate(\n        string memory _id,\n        string memory _candidate_name,\n        string memory _org_name, \n        string memory _course_name, \n        uint256 _expiration_date) public {\n        bytes32 byte_id = stringToBytes32(_id);\n        require(certificates[byte_id].expiration_date == 0, \"Certificate with given id already exists\");\n        certificates[byte_id] = Certificate(_candidate_name, _org_name, _course_name, _expiration_date);\n        emit certificateGenerated(byte_id);\n    }\n\n    function getData(string memory _id) public view returns(string memory, string memory, string memory, uint256) {\n        bytes32 byte_id = stringToBytes32(_id);\n        Certificate memory temp = certificates[byte_id];\n        require(temp.expiration_date != 0, \"No data exists\");\n        return (temp.candidate_name, temp.org_name, temp.course_name, temp.expiration_date);\n    }\n}",
  "sourcePath": "/workspace/blockchain-certification/contracts/Certification.sol",
  "compiler": {
    "name": "solc",
    "version": "0.4.24+commit.e67f0147.Emscripten.clang"
  },
  "schemaVersion": "3.4.4",
  "updatedAt": "2021-12-24T07:40:12.645Z",
  "networkType": "ethereum",
  "devdoc": {
    "methods": {}
  },
  "userdoc": {
    "methods": {}
  }
}